:100000000C9462000C948A000C948A000C948A0070
:100010000C948A000C948A000C948A000C948A0038
:100020000C948A000C948A000C948A000C948A0028
:100030000C948A000C948A000C948A000C948A0018
:100040000C94EE000C948A000C94E0020C942E03A5
:100050000C948A000C948A000C948A000C948A00F8
:100060000C948A000C948A000000000024002700F1
:100070002A0000000000250028002B0000000000DE
:1000800023002600290004040404040404040202DA
:100090000202020203030303030301020408102007
:1000A0004080010204081020010204081020000012
:1000B0000007000201000003040600000000000029
:1000C00000009A0411241FBECFEFD8E0DEBFCDBFE1
:1000D00011E0A0E0B1E0E8EFFCE002C005900D9275
:1000E000A231B107D9F711E0A2E1B1E001C01D9240
:1000F000A53CB107E1F710E0C4ECD0E004C02297C2
:10010000FE010E947606C23CD107C9F70E9419067B
:100110000C948C000C940000F8940C947A06EF92E6
:10012000FF921F93CF93DF938EE00E94CA01BC0120
:1001300083EA91E04AE050E00E94FA051091000144
:10014000C0E0D0E01F5FE12EFF24E7FCF0941150E7
:100150001F5FCE018E0D9F1D0E942A062196892BBE
:10016000B9F31093000163E070E080E090E00E943A
:10017000360189E06FE770E00E94EC0161E070E019
:1001800080E090E00E94360189E06FE770E00E9415
:10019000EC0161E070E080E090E00E943601DF91C8
:1001A000CF911F91FF90EF90089588E061E00E9449
:1001B0004C0289E061E00E944C0288E061E00E940C
:1001C0008B0289E060E00E948B0283EA91E040E8C4
:1001D00055E260E070E00E94690308951F920F925B
:1001E0000FB60F9211242F933F938F939F93AF934A
:1001F000BF938091160190911701A0911801B091C1
:10020000190130911A010196A11DB11D232F2D5FF7
:100210002D3720F02D570196A11DB11D20931A01F5
:100220008093160190931701A0931801B0931901C0
:100230008091120190911301A0911401B0911501C8
:100240000196A11DB11D8093120190931301A093FB
:100250001401B0931501BF91AF919F918F913F9180
:100260002F910F900FBE0F901F9018959B01AC011E
:100270007FB7F8948091120190911301A09114011D
:10028000B091150166B5A89B05C06F3F19F00196A6
:10029000A11DB11D7FBFBA2FA92F982F8827860FC8
:1002A000911DA11DB11D62E0880F991FAA1FBB1FE0
:1002B0006A95D1F7BC012DC0FFB7F8948091120167
:1002C00090911301A0911401B0911501E6B5A89B7E
:1002D00005C0EF3F19F00196A11DB11DFFBFBA2F58
:1002E000A92F982F88278E0F911DA11DB11DE2E027
:1002F000880F991FAA1FBB1FEA95D1F7861B970B82
:10030000885E9340C8F221503040404050406851D0
:100310007C4F211531054105510571F608957894FA
:1003200084B5826084BD84B5816084BD85B58260FA
:1003300085BD85B5816085BDEEE6F0E08081816098
:100340008083E1E8F0E01082808182608083808198
:1003500081608083E0E8F0E0808181608083E1EB70
:10036000F0E0808184608083E0EBF0E08081816058
:100370008083EAE7F0E0808184608083808182600E
:1003800080838081816080838081806880831092F7
:10039000C1000895982F8E3008F09E50977080917C
:1003A00001018295880F880F807C892B80937C00C7
:1003B00080917A00806480937A0080917A0086FD33
:1003C000FCCF2091780040917900942F80E030E0BC
:1003D000282B392BC90108951F93CF93DF93182F32
:1003E000EB0161E00E944C02209709F44AC0CF3F24
:1003F000D10509F449C0E12FF0E0E255FF4F8491A7
:100400008330C1F0843028F4813051F08230B1F56E
:100410000CC0863019F1873049F1843079F514C069
:1004200084B5806884BDC7BD33C084B5806284BD97
:10043000C8BD2EC080918000806880938000D093DA
:100440008900C093880024C08091800080628093DE
:100450008000D0938B00C0938A001AC08091B000B6
:1004600080688093B000C093B30012C08091B00048
:1004700080628093B000C093B4000AC0C038D10538
:100480001CF4812F60E002C0812F61E00E948B028A
:10049000DF91CF911F910895CF93DF93482F50E0C4
:1004A000CA0186569F4FFC0134914A575F4FFA01AB
:1004B0008491882369F190E0880F991FFC01E85925
:1004C000FF4FA591B491FC01EE58FF4FC591D49117
:1004D000662351F42FB7F8948C91932F909589232C
:1004E0008C93888189230BC0623061F42FB7F89414
:1004F0008C91932F909589238C938881832B88836B
:100500002FBF06C09FB7F8948C91832B8C939FBF0D
:10051000DF91CF910895482F50E0CA0182559F4F37
:10052000FC012491CA0186569F4FFC0194914A57C1
:100530005F4FFA013491332309F440C0222351F173
:10054000233071F0243028F42130A1F0223011F54D
:1005500014C02630B1F02730C1F02430D9F404C0E3
:10056000809180008F7703C0809180008F7D809381
:10057000800010C084B58F7702C084B58F7D84BDA4
:1005800009C08091B0008F7703C08091B0008F7D4B
:100590008093B000E32FF0E0EE0FFF1FEE58FF4F07
:1005A000A591B4912FB7F894662321F48C9190957E
:1005B000892302C08C91892B8C932FBF08950895B5
:1005C0001F920F920FB60F9211242F933F934F93C8
:1005D0008F939F93EF93FF938091C00082FD1DC086
:1005E0004091C60020915B0130915C012F5F3F4F2D
:1005F0002F73307080915D0190915E01281739074B
:1006000071F0E0915B01F0915C01E55EFE4F40838B
:1006100030935C0120935B0102C08091C600FF9182
:10062000EF919F918F914F913F912F910F900FBE1E
:100630000F901F901895E091AF01F091B001E05C30
:10064000FF4F8191919120813181821B930B8F7398
:100650009070892B11F00E94DF0208951F920F9273
:100660000FB60F9211242F933F938F939F93EF9385
:10067000FF9320919F013091A0018091A101909161
:10068000A2012817390731F48091C1008F7D809332
:10069000C10014C0E091A101F091A201E15AFE4F06
:1006A00020818091A1019091A20101968F73907099
:1006B0009093A2018093A1012093C600FF91EF9136
:1006C0009F918F913F912F910F900FBE0F901F9090
:1006D0001895AF92BF92DF92EF92FF920F931F9304
:1006E000CF93DF93EC017A018B01DD24403081EE62
:1006F000580780E0680780E0780711F0DD24D39484
:1007000091E0A92EB12CEC89FD89DD2069F0C501AD
:1007100008A002C0880F991F0A94E2F7808360E066
:1007200079E08DE390E005C0108260E874E88EE126
:1007300090E0A80197010E945206215030404040AD
:100740005040569547953795279580E120303807DA
:1007500020F0DD2011F0DD24D6CFE889F98930833F
:10076000EA89FB89208319A2EE89FF89408121E073
:1007700030E0C9010C8C02C0880F991F0A94E2F77F
:10078000482B4083EE89FF894081C9010D8C02C04E
:10079000880F991F0A94E2F7482B4083EE89FF895E
:1007A0004081C9010E8C02C0880F991F0A94E2F79C
:1007B000482B4083EE89FF8980810F8C02C0220F75
:1007C000331F0A94E2F7209528232083DF91CF91ED
:1007D0001F910F91FF90EF90DF90BF90AF90089521
:1007E000DC011C96ED91FC911D97E05CFF4F21917F
:1007F000319180819181281B390B2F733070C90191
:100800000895DC011C96ED91FC911D97E05CFF4F73
:1008100020813181E054F040DF01AE5BBF4F8D910C
:100820009C9111972817390719F42FEF3FEF07C054
:100830008D919C91E80FF91F8081282F30E0C9012C
:100840000895DC011C96ED91FC911D97E05CFF4F33
:1008500020813181E054F040DF01AE5BBF4F8D91CC
:100860009C9111972817390719F42FEF3FEF10C00B
:100870008D919C911197E80FF91F20818D919C918A
:10088000119701968F73907011969C938E9330E020
:10089000C9010895DC0191968C919197882339F0D4
:1008A0005496ED91FC915597808186FFF9CF9196F2
:1008B0001C920895CF93DF93EC01EE85FF85E05CF9
:1008C000FF4F20813181E054F0402F5F3F4F2F7365
:1008D0003070DF01AE5BBF4F8D919C91119728174F
:1008E0003907D1F3E05CFF4F80819181E054F04003
:1008F000E80FF91F6083EE85FF85E05CFF4F3183D1
:100900002083EE89FF89208181E090E00F8C02C076
:10091000880F991F0A94E2F7282B208381E089A38E
:10092000EC89FD8980818064808381E090E0DF91A3
:10093000CF9108951092A6011092A50188EE93E040
:10094000A0E0B0E08093A7019093A801A093A90133
:10095000B093AA0186E091E09093A4018093A30153
:100960008BE191E09093B0018093AF018FE591E02E
:100970009093B2018093B10185EC90E09093B40123
:100980008093B30184EC90E09093B6018093B5011D
:1009900080EC90E09093B8018093B70181EC90E0F7
:1009A0009093BA018093B90182EC90E09093BC01DE
:1009B0008093BB0186EC90E09093BE018093BD01D3
:1009C00084E08093BF0183E08093C00187E080933F
:1009D000C10185E08093C20181E08093C301089545
:1009E000CF92DF92EF92FF920F931F93CF93DF93FB
:1009F0007C016B018A01C0E0D0E00FC0D6016D918F
:100A00006D01D701ED91FC910190F081E02DC701BE
:100A10000995C80FD91F015010400115110571F734
:100A2000CE01DF91CF911F910F91FF90EF90DF905A
:100A3000CF900895EF92FF920F931F938C01DC01EA
:100A4000ED91FC910190F081E02D6DE009957C0124
:100A5000D801ED91FC910190F081E02DC8016AE090
:100A600009959C012E0D3F1DC9011F910F91FF900B
:100A7000EF900895CF93DF93EC016115710519F4A0
:100A800020E030E00FC0DB010D900020E9F7119766
:100A9000A61BB70BE881F9810280F381E02DAD013F
:100AA00009959C01C901DF91CF9108954F925F9202
:100AB0007F928F929F92AF92BF92CF92DF92EF92EE
:100AC000FF920F931F93DF93CF93CDB7DEB7A1971C
:100AD0000FB6F894DEBF0FBECDBF2C01742ECB0134
:100AE000223008F42AE019A231E2C32ED12CCC0E18
:100AF000DD1E822E9924AA24BB24672D752FA50103
:100B000094010E94520679018A01C801B701A5012A
:100B100094010E943306472D461B0894C108D10852
:100B20004A3014F4405D01C0495CF6014083E11491
:100B3000F1040105110521F07E2C5F2DC801DDCFE8
:100B4000C201B6010E943A05A1960FB6F894DEBF25
:100B50000FBECDBFCF91DF911F910F91FF90EF900E
:100B6000DF90CF90BF90AF909F908F907F905F90DD
:100B70004F900895CF92DF92EF92FF920F931F93C1
:100B8000CF93DF93EC016A017B012115310541F41C
:100B9000E881F9810190F081E02D642F09951FC053
:100BA0002A303105D1F477FF17C0E881F98101902F
:100BB000F081E02D6DE209958C0144275527BA019B
:100BC0004C195D096E097F09CE012AE00E94560585
:100BD0009801280F391F04C02AE00E9456059C0185
:100BE000C901DF91CF911F910F91FF90EF90DF909E
:100BF000CF900895CF92DF92EF92FF920F931F93C1
:100C00006C017B019A010027F7FC0095102FB801B9
:100C1000A7010E94BA058C01C6010E941A05080F9F
:100C2000191FC8011F910F91FF90EF90DF90CF9097
:100C30000895CF93DF930E948F010E94D500CBE1EE
:100C4000D3E00E948F002097E1F30E941B03F9CFAD
:100C5000803209F0911104C080528F55E0F7089559
:100C6000992788270895629FD001739FF001829F82
:100C7000E00DF11D649FE00DF11D929FF00D839F2B
:100C8000F00D749FF00D659FF00D9927729FB00DC8
:100C9000E11DF91F639FB00DE11DF91FBD01CF01DB
:100CA00011240895A1E21A2EAA1BBB1BFD010DC041
:100CB000AA1FBB1FEE1FFF1FA217B307E407F5070C
:100CC00020F0A21BB30BE40BF50B661F771F881FE8
:100CD000991F1A9469F760957095809590959B017E
:100CE000AC01BD01CF010895EE0FFF1F0590F491F7
:080CF000E02D0994F894FFCFF8
:100CF8001E01000000005A04F004F003210401045E
:020D08004A049B
:00000001FF
